:020000040800F2
:1000000000500020B9120008491200084F120008E1
:10001000551200085B120008611200080000000081
:10002000000000000000000000000000671200084F
:1000300073120008000000007F1200088B120008F5
:100040000113000801130008011300080113000840
:100050000113000801130008011300080113000830
:100060000113000801130008011300080113000820
:100070000113000801130008011300080113000810
:100080000113000801130008011300080113000800
:1000900001130008011300080113000801130008F0
:1000A00001130008011300080113000801130008E0
:1000B0009912000801130008011300080113000839
:1000C00001130008011300080113000801130008C0
:1000D00001130008011300080113000801130008B0
:1000E00001130008011300080113000800000000BC
:1000F0000000000000000000000000000000000000
:0C01000000000000000000005FF808F1A3
:10010C0010B5054C237833B9044B13B10448AFF345
:10011C0000800123237010BD580000200000000057
:10012C009829000808B5034B1BB103490348AFF3EA
:10013C00008008BD000000005C0000209829000829
:10014C0080B483B000AF7860094A7B6852F82330E2
:10015C00012B06D1064A7B68002142F823100123AB
:10016C0000E0002318460C37BD4680BC704700BF2A
:10017C007400002080B483B000AF7860044A7B68C0
:10018C00012142F8231000BF0C37BD4680BC7047DC
:10019C007400002080B582B000AF00237B6067E064
:1001AC00374A7B6852F8232036497B6841F8232074
:1001BC00354A7B6852F8232031497B6841F823206B
:1001CC00324A7B6852F823301846314A7B6852F821
:1001DC0023309BB2194601F083FB034619462A4A89
:1001EC007B6842F82310264A7B6852F82320264964
:1001FC007B6851F823309A4237D1214A7B6852F8F8
:10020C00232020497B6851F823309A422DD11D4A76
:10021C007B6852F823201F497B6851F823309A429F
:10022C0015D0184A7B6852F823201A497B6841F88C
:10023C002320184A7B6852F82330002B15D1164B1B
:10024C004FF496721A607868FFF794FF0DE0124B2A
:10025C001B68013B104A13600F4B1B68002B04D129
:10026C000C4A7B68012142F823107B6801337B60C8
:10027C007B68022B94DD00BF00BF0837BD4680BDF4
:10028C000C00002018000020000000203C00002082
:10029C0030000020240000204800002080B500AF72
:1002AC00944B1B68012B40F01A81934B1B68032B5A
:1002BC007AD801A252F823F0D5020008E302000814
:1002CC00290300086F0300088B4B01221A6064207D
:1002DC0000F004FE6FE0894B1B68012B66D100F027
:1002EC00C7FB874B1B68874A1360864B1B681846F5
:1002FC0000F048FC824B1B68013B814A1360804B29
:10030C001B68002B06D1804B1B687D4A13607A4B0F
:10031C0002221A60642000F0E1FD47E0774B1B6875
:10032C00012B45D100F0D4FB784B1B68754A136048
:10033C00744B1B68184600F025FC744B1B68013B82
:10034C00724A1360714B1B68002B06D1704B1B68F3
:10035C006E4A1360684B03221A60642000F0BEFDE5
:10036C0026E0664B1B68012B24D100F099FB694BEE
:10037C001B68644A1360634B1B68184600F002FC50
:10038C00644B1B68013B634A1360624B1B68002B78
:10039C0006D1614B1B685F4A1360574B01221A60F0
:1003AC00642000F09BFD05E000BF04E000BF02E00C
:1003BC0000BF00E000BF594B1B68032B5FD801A2A4
:1003CC0052F823F0E103000857040008EF0300087B
:1003DC0023040008514B02221A60642000F092FDA5
:1003EC0054E04F4B1B68012B4BD100F09FFB4D4B46
:1003FC001B68013B4B4A13604A4B1B68002B06D110
:10040C00434B1B68474A1360444B03221A60642019
:10041C0000F078FD35E0424B1B68012B33D100F026
:10042C009BFB414B1B68013B3F4A13603E4B1B68D7
:10043C00002B06D1384B1B683B4A1360374B01220B
:10044C001A60642000F05EFD1DE0354B1B68012B2B
:10045C001BD100F055FB354B1B68013B334A136035
:10046C00324B1B68002B06D1274B1B682F4A13609D
:10047C002A4B02221A60642000F044FD05E000BF04
:10048C0004E000BF02E000BF00E000BF194B1B6896
:10049C00032B1AD0032B24DC012B02D0022B0AD005
:1004AC001FE00020FFF74CFE0346012B1BD1114B24
:1004BC0002221A6017E00020FFF742FE0346012BD0
:1004CC0013D10C4B03221A600FE00020FFF738FE0B
:1004DC000346012B0BD1074B01221A6007E000BF2A
:1004EC0006E000BF04E000BF02E000BF00E000BF78
:1004FC0000BF80BD84000020880000202001002067
:10050C00BC00002080000020B0000020C0000020B3
:10051C00B8000020C4000020B40000208C00002093
:10052C0028010020CC000020D0000020C8000020B2
:10053C0080B500AF914B1B68022B40F0BD80904BF7
:10054C001B68002B02D0012B09D012E08C4B01222E
:10055C001A6000F079FA0A2000F0E8FC09E0894BF7
:10056C001B68012B04D100F01FFA322000F0DEFCD6
:10057C0000BF854B1B68002B02D0012B07D013E06A
:10058C00814B01221A600A2000F0E4FC0CE07F4B46
:10059C001B68012B07D17E4B1B68184600F0F2FA42
:1005AC00322000F0D7FC00BF7A4B1B68022B4BD0DB
:1005BC00022B71DC002B02D0012B1DD06CE0012032
:1005CC00FFF7BEFD0346012B07D1724B01221A60C7
:1005DC006F4B1B6801336E4A13600220FFF7B0FDAE
:1005EC000346012B5AD16B4B02221A60684B1B68D5
:1005FC00013B674A136051E00120FFF7A1FD034660
:10060C00012B0BD1624B1B680133614A1360604BA9
:10061C001B68082B02DD5E4B09221A600220FFF7D3
:10062C008FFD0346012B3BD15A4B02221A60584BCB
:10063C001B68013B564A1360554B1B68012B2FDC82
:10064C00534B01221A602BE00120FFF779FD034682
:10065C00012B0ED14F4B01221A604D4B1B680133FD
:10066C004B4A13604A4B1B68082B02DD484B09228E
:10067C001A600220FFF764FD0346012B12D1444B94
:10068C001B68013B424A1360414B1B68012B09DC80
:10069C003F4B01221A6005E000BF04E000BF02E0FE
:1006AC0000BF00E000BF0020FFF74AFD0346012B0E
:1006BC0002D1324B03221A60304B1B68032B40F0E3
:1006CC00E180354B1B68002B02D0012B07D010E0CA
:1006DC00314B01221A600A2000F050FC09E02F4B2C
:1006EC001B68012B04D100F087F9322000F046FC86
:1006FC0000BF2B4B1B68002B02D0012B07D013E043
:10070C00274B01221A600A2000F04CFC0CE0254B10
:10071C001B68012B07D1244B1B68184600F032FADA
:10072C00322000F03FFC00BF204B1B68022B6BD02B
:10073C00022B00F39580002B02D0012B38D08FE0D8
:10074C000120FFF7FDFC0346012B07D1174B0122BB
:10075C001A60154B1B680133134A13600220FFF714
:10076C00EFFC0346012B7DD1104B02221A600E4B7D
:10077C001B68013B0C4A136074E000BF840000202E
:10078C0098000020380100209C000020400100202F
:10079C00B0000020A0000020A40000205801002080
:1007AC00A800002060010020B8000020AC00002050
:1007BC000120FFF7C5FC0346012B0FD1364B1B68FC
:1007CC000133354A1360344B1A68344B1B689A4218
:1007DC0004DB324B1B68013B2F4A13600220FFF7EE
:1007EC00AFFC0346012B3FD12D4B02221A602A4B42
:1007FC001B68013B284A1360274B1B68012B33DC19
:10080C00254B01221A602FE00120FFF799FC0346CB
:10081C00012B12D1224B01221A601F4B1B68013392
:10082C001D4A13601C4B1A681C4B1B689A4204DB54
:10083C001A4B1B68013B184A13600220FFF780FC1F
:10084C000346012B12D1144B1B68013B124A136057
:10085C00114B1B68012B09DC0F4B01221A6005E0C0
:10086C0000BF04E000BF02E000BF00E000BF0020BA
:10087C00FFF766FC0346012B04D10A4B01221A60D8
:10088C0000F02AF8054B1A68034B1B68D31A064A6A
:10089C00136000BF80BD00BFB8000020B000002076
:1008AC00AC00002084000020B400002080B400AF15
:1008BC00064B05221A60064B02221A60054B0322D6
:1008CC001A6000BFBD4680BC704700BFB00000205E
:1008DC00B4000020B800002080B400AF1E4B0122F1
:1008EC001A601E4B00221A601D4B00221A601D4B11
:1008FC0000221A601C4B00221A601C4B00221A604A
:10090C001B4B00221A601B4B00221A601A4B002250
:10091C001A601A4B00221A60194B00221A60194BEC
:10092C001B68194A1360194B1B68194A1360194B41
:10093C001B68194A1360134B1B68184A1360134B3E
:10094C001B68174A1360134B1B68164A136000BFD1
:10095C00BD4680BC704700BF84000020880000208A
:10096C008C000020900000209400002098000020B3
:10097C009C000020A0000020A4000020A800002063
:10098C00AC000020B0000020BC000020B80000200B
:10099C00C0000020B4000020C4000020C8000020CB
:1009AC00CC000020D000002080B500AF20210F48E3
:1009BC0000F0C5FF4FF480710D4800F0C0FF01221C
:1009CC004FF400410B4800F0A2FF012220210848FF
:1009DC0000F09DFF01220221064800F098FF012241
:1009EC004021034800F093FF00BF80BD000C014084
:1009FC00001001400008014080B500AF4FF40041E9
:100A0C000E4800F09CFF20210D4800F098FF0122B9
:100A1C0020210C4800F07BFF01224FF48071084824
:100A2C0000F075FF01220221044800F070FF012242
:100A3C004021034800F06BFF00BF80BD000801405F
:100A4C0000100140000C014080B500AF01222021B4
:100A5C00054800F05CFF01224FF48071034800F060
:100A6C0056FF00BF80BD00BF000C014000100140CC
:100A7C0080B500AF00222021074800F048FF01227A
:100A8C004FF40041054800F042FF012202210348C7
:100A9C0000F03DFF00BF80BD000C0140000801408C
:100AAC0080B500AF01222021074800F030FF012261
:100ABC004FF40041054800F02AFF002202210348B0
:100ACC0000F025FF00BF80BD000C01400008014074
:100ADC0080B500AF01222021074800F018FF00224A
:100AEC004FF40041054800F012FF01220221034897
:100AFC0000F00DFF00BF80BD000C0140000801405C
:100B0C0080B500AF00224FF48071074800F0FFFE63
:100B1C0001222021044800F0FAFE01224021024863
:100B2C0000F0F5FE00BF80BD0010014080B500AFA5
:100B3C0001224FF48071074800F0E9FE00222021C9
:100B4C00044800F0E4FE01224021024800F0DFFEE0
:100B5C0000BF80BD0010014080B500AF01224FF4F2
:100B6C008071074800F0D3FE01222021044800F0D8
:100B7C00CEFE00224021024800F0C9FE00BF80BD1D
:100B8C000010014080B582B000AF7860324A7B68BB
:100B9C0013441B7803F00103DBB21A4608212F48DB
:100BAC0000F0B5FE2C4A7B6813441B785B08DBB263
:100BBC0003F00103DBB21A464FF48061284800F0C1
:100BCC00A6FE254A7B6813441B789B08DBB203F016
:100BDC000103DBB21A460821214800F098FE1E4A98
:100BEC007B6813441B78DB08DBB203F00103DBB238
:100BFC001A4601211B4800F08AFE174A7B681344F1
:100C0C001B781B09DBB203F00103DBB21A4602218D
:100C1C00144800F07CFE104A7B6813441B785B0977
:100C2C00DBB203F00103DBB21A4610210C4800F0D2
:100C3C006EFE094A7B6813441B789B09DBB203F0F8
:100C4C000103DBB21A460121044800F060FE00BF2C
:100C5C000837BD4680BD00BFC0290008000C01400C
:100C6C00000801400010014080B500AF00F044FBCB
:100C7C0000F016F800F09CF800F04EF8074801F070
:100C8C00AFFAFFF713FE642000F0A0F9FFF724FE83
:100C9C00FFF704FBFFF74CFCFAE700BFD400002081
:100CAC0080B590B000AF07F1180328220021184638
:100CBC0001F064FE3B1D00221A605A609A60DA60F3
:100CCC001A610223BB610123BB621023FB62002368
:100CDC007B6307F11803184600F04AFE0346002B0D
:100CEC0001D000F0F5F80F237B600023BB600023DC
:100CFC00FB6000233B6100237B613B1D00211846F8
:100D0C0001F0B8F80346002B01D000F0E1F800BF69
:100D1C004037BD4680BD000080B586B000AF07F1FE
:100D2C00080300221A605A609A60DA603B4600227F
:100D3C001A605A601D4B4FF080421A601B4B41F6F3
:100D4C003F725A60194B00229A60184B0922DA60E4
:100D5C00164B00221A61154B00229A61134801F0C0
:100D6C00EFF90346002B01D000F0B2F84FF480539A
:100D7C00BB6007F1080319460C4801F08BFB0346D6
:100D8C00002B01D000F0A4F800233B6000237B6013
:100D9C003B461946054801F05DFD0346002B01D08A
:100DAC0000F096F800BF1837BD4680BDD400002077
:100DBC0080B588B000AF07F1100300221A605A60AA
:100DCC009A60DA60384B9B69374A43F010039361A1
:100DDC00354B9B6903F01003FB60FB68324B9B693E
:100DEC00314A43F0040393612F4B9B6903F00403D6
:100DFC00BB60BB682C4B9B692B4A43F00803936187
:100E0C00294B9B6903F008037B607B68002240F24E
:100E1C006311264800F07BFD002248F21A41244859
:100E2C0000F075FD00222921224800F070FD40F2EF
:100E3C0063133B6101237B610023BB610223FB61D4
:100E4C0007F110031946194800F0C6FB48F21A4383
:100E5C003B6101237B610023BB610223FB6107F132
:100E6C0010031946124800F0B7FBE0233B61002346
:100E7C007B610123BB6107F1100319460C4800F09C
:100E8C00ABFB29233B6101237B610023BB61022364
:100E9C00FB6107F110031946064800F09DFB00BFEB
:100EAC002037BD4680BD00BF00100240001001403D
:100EBC0000080140000C014080B582B000AF7860A2
:100ECC0000F098F8FFF766F900BF0837BD4680BD03
:100EDC0080B400AF72B600BFFEE7000080B483B0F0
:100EEC0000AF7860054A7B681360054B00221A60DE
:100EFC0000BF0C37BD4680BC704700BF1C010020F2
:100F0C002001002080B483B000AF7860054A7B6874
:100F1C001360054B00221A6000BF0C37BD4680BC25
:100F2C00704700BF240100202801002080B483B04A
:100F3C0000AF7860054A7B681360054B00221A608D
:100F4C0000BF0C37BD4680BC704700BF3401002089
:100F5C003801002080B483B000AF7860054A7B680C
:100F6C001360054B00221A6000BF0C37BD4680BCD5
:100F7C00704700BF3C0100204001002080B483B0CA
:100F8C0000AF7860054A7B681360054B00221A603D
:100F9C0000BF0C37BD4680BC704700BF5401002019
:100FAC005801002080B483B000AF7860054A7B689C
:100FBC001360054B00221A6000BF0C37BD4680BC85
:100FCC00704700BF5C0100206001002080B483B03A
:100FDC0000AF7860054A7B681360054B00221A60ED
:100FEC0000BF0C37BD4680BC704700BF64010020B9
:100FFC006801002080B400AF514B1B68002B0BDD47
:10100C004F4B1B68013B4E4A13604D4B1B68002B2A
:10101C0002DC4C4B01221A604B4B1B68002B0BDD86
:10102C00494B1B68013B484A1360474B1B68002B1C
:10103C0002DC464B01221A60454B1B68002B0BDD72
:10104C00434B1B68013B424A1360414B1B68002B0E
:10105C0002DC404B01221A603F4B1B68002B0BDD5E
:10106C003D4B1B68013B3C4A13603B4B1B68002B00
:10107C0002DC3A4B01221A60394B1B68002B0BDD4A
:10108C00374B1B68013B364A1360354B1B68002BF2
:10109C0002DC344B01221A60334B1B68002B0BDD36
:1010AC00314B1B68013B304A13602F4B1B68002BE4
:1010BC0002DC2E4B01221A602D4B1B68002B0BDD22
:1010CC002B4B1B68013B2A4A1360294B1B68002BD6
:1010DC0002DC284B01221A60274B1B68002B0BDD0E
:1010EC00254B1B68013B244A1360234B1B68002BC8
:1010FC0002DC224B01221A60214B1B68002B0BDDFA
:10110C001F4B1B68013B1E4A13601D4B1B68002BB9
:10111C0002DC1C4B01221A601B4B1B68002B0BDDE5
:10112C00194B1B68013B184A1360174B1B68002BAB
:10113C0002DC164B01221A6000BFBD4680BC704712
:10114C001C01002020010020240100202801002087
:10115C002C01002030010020340100203801002037
:10116C003C010020400100204401002048010020E7
:10117C004C01002050010020540100205801002097
:10118C005C01002060010020640100206801002047
:10119C0080B485B000AF154B9B69144A43F0010332
:1011AC009361124B9B6903F00103BB60BB680F4B4F
:1011BC00DB690E4A43F08053D3610C4BDB6903F0BF
:1011CC0080537B607B680A4B5B68FB60FB6823F099
:1011DC00E063FB60FB6843F00073FB60044AFB6850
:1011EC00536000BF1437BD4680BC704700100240EE
:1011FC000000014080B584B000AF78607B681B684C
:10120C00B3F1804F13D10C4BDB690B4A43F0010354
:10121C00D361094BDB6903F00103FB60FB6800221F
:10122C0000211C2000F0A1F91C2000F0BAF900BF2D
:10123C001037BD4680BD00BF0010024080B400AF27
:10124C00FEE780B400AFFEE780B400AFFEE780B4E9
:10125C0000AFFEE780B400AFFEE780B400AF00BF84
:10126C00BD4680BC704780B400AF00BFBD4680BC9B
:10127C00704780B400AF00BFBD4680BC704780B5DE
:10128C0000AF00F07FF800BF80BD000080B500AF5C
:10129C00024800F0F7FF00BF80BD00BFD400002063
:1012AC0080B400AF00BFBD4680BC70470C480D49F0
:1012BC000D4A002302E0D458C4500433C4188C42A5
:1012CC00F9D30A4A0A4C002301E013600432A2420B
:1012DC00FBD3FFF7E5FF01F02DFBFFF7C5FC7047D3
:1012EC000000002058000020E429000858000020CD
:1012FC0070010020FEE7000080B500AF084B1B68B2
:10130C00074A43F010031360032000F023F90F2069
:10131C0000F008F8FFF73CFF0023184680BD00BF23
:10132C000020024080B582B000AF7860124B1A6882
:10133C00124B1B7819464FF47A73B3FBF1F3B2FBE3
:10134C00F3F3184600F03BF90346002B01D00123C0
:10135C000EE07B680F2B0AD8002279684FF0FF3023
:10136C0000F003F9064A7B681360002300E00123B8
:10137C0018460837BD4680BD4C00002054000020A4
:10138C005000002080B400AF054B1B781A46054B6B
:10139C001B681344034A136000BFBD4680BC7047F2
:1013AC00540000206C01002080B400AF024B1B687D
:1013BC001846BD4680BC70476C01002080B485B0D7
:1013CC0000AF78607B6803F00703FB600C4BDB68B5
:1013DC00BB60BA684FF6FF031340BB60FB681A0290
:1013EC00BB68134343F0BF6343F40033BB60044A50
:1013FC00BB68D36000BF1437BD4680BC704700BFCC
:10140C0000ED00E080B400AF044BDB681B0A03F076
:10141C0007031846BD4680BC704700BF00ED00E0D6
:10142C0080B483B000AF0346FB7197F90730002BF3
:10143C000BDBFB7903F01F02064997F907305B09B8
:10144C00012000FA02F241F8232000BF0C37BD4600
:10145C0080BC704700E100E080B483B000AF03466D
:10146C003960FB7197F90730002B0ADB3B68DAB265
:10147C000C4997F907301201D2B20B4483F80023C0
:10148C000AE03B68DAB20849FB7903F00F03043B2E
:10149C001201D2B20B441A7600BF0C37BD4680BC89
:1014AC00704700BF00E100E000ED00E080B489B0BF
:1014BC0000AFF860B9607A60FB6803F00703FB616A
:1014CC00FB69C3F10703042B28BF0423BB61FB6931
:1014DC000433062B02D9FB69033B00E000237B613C
:1014EC004FF0FF32BB6902FA03F3DA43BB681A40D0
:1014FC007B699A404FF0FF317B6901FA03F3D943C2
:10150C007B680B40134318462437BD4680BC70479C
:10151C0080B582B000AF78607B68013BB3F1807F0F
:10152C0001D301230FE00A4A7B68013B53600F2172
:10153C004FF0FF30FFF790FF054B00229A60044BF1
:10154C0007221A60002318460837BD4680BD00BF2D
:10155C0010E000E080B582B000AF78607868FFF7EB
:10156C002DFF00BF0837BD4680BD80B586B000AFEB
:10157C000346B9607A60FB7300237B61FFF742FF7F
:10158C0078617A68B9687869FFF790FF024697F935
:10159C000F3011461846FFF75FFF00BF1837BD46E6
:1015AC0080BD80B582B000AF0346FB7197F9073060
:1015BC001846FFF735FF00BF0837BD4680BD80B524
:1015CC0082B000AF78607868FFF7A2FF0346184638
:1015DC000837BD4680BD000080B48BB000AF78608A
:1015EC00396000237B6200233B6269E101227B6A44
:1015FC0002FA03F3FB613B681B68FA691340BB6199
:10160C00BA69FB699A4240F058813B685B689A4A18
:10161C0093425ED0984A934275D8984A934258D0D8
:10162C00964A93426FD8964A934252D0944A934228
:10163C0069D8944A93424CD0924A934263D8924AC6
:10164C00934246D0904A93425DD8122B2AD8122B43
:10165C0059D801A252F823F0DF160008B916000879
:10166C00CB1600080D1700081317000813170008F5
:10167C001317000813170008131700081317000896
:10168C001317000813170008131700081317000886
:10169C00131700081317000813170008C1160008C9
:1016AC00D5160008794A934213D02CE03B68DB68CE
:1016BC003B6229E03B68DB6804333B6224E03B6817
:1016CC00DB6808333B621FE03B68DB680C333B6232
:1016DC001AE03B689B68002B02D104233B6213E0A9
:1016EC003B689B68012B05D108233B627B68FA6938
:1016FC001A6109E008233B627B68FA695A6103E0CE
:10170C0000233B6200E000BFBB69FF2B01D87B6864
:10171C0001E07B6804337B61BB69FF2B02D87B6AD9
:10172C009B0002E07B6A083B9B003B617B691A686B
:10173C000F213B6901FA03F3DB431A40396A3B6919
:10174C0001FA03F31A437B691A603B685B6803F088
:10175C008053002B00F0B1804D4B9B694C4A43F0F9
:10176C00010393614A4B9B6903F00103BB60BB68A7
:10177C00484A7B6A9B08023352F82330FB607B6A31
:10178C0003F003039B000F2202FA03F3DB43FA6816
:10179C001340FB607B68404A934213D07B683F4AFE
:1017AC0093420DD07B683E4A934207D07B683D4AFA
:1017BC00934201D1032306E0042304E0022302E058
:1017CC00012300E000237A6A02F0030292009340A6
:1017DC00FA681343FB602F497B6A9B080233FA6853
:1017EC0041F823203B685B6803F48033002B06D060
:1017FC002D4B1A682C49BB6913430B6006E02A4B2E
:10180C001A68BB69DB43284913400B603B685B6873
:10181C0003F40033002B06D0234B5A682249BB69D2
:10182C0013434B6006E0204B5A68BB69DB431E49EF
:10183C0013404B603B685B6803F48013002B06D0AD
:10184C00194B9A681849BB6913438B6006E0164B19
:10185C009A68BB69DB43144913408B603B685B6837
:10186C0003F40013002B21D00F4BDA680E49BB692F
:10187C001343CB6021E000BF000032100000311098
:10188C0000002210000021100000121000001110A6
:10189C00001002400000014000080140000C014013
:1018AC000010014000140140000401400B4BDA68A9
:1018BC00BB69DB4309491340CB607B6A01337B6214
:1018CC003B681A687B6A22FA03F3002B7FF48EAE16
:1018DC0000BF00BF2C37BD4680BC704700040140E0
:1018EC0080B485B000AF78600B467B807B689A68CB
:1018FC007B881340002B02D00123FB7301E00023F3
:10190C00FB73FB7B18461437BD4680BC704780B414
:10191C0083B000AF78600B467B8013467B707B787E
:10192C00002B03D07A887B681A6103E07B881A0449
:10193C007B681A6100BF0C37BD4680BC704780B411
:10194C0085B000AF78600B467B807B68DB68FB6002
:10195C007A88FB6813401A04FB68D9437B880B40D8
:10196C001A437B681A6100BF1437BD4680BC7047B0
:10197C0080B586B000AF78607B68002B01D1012365
:10198C0072E27B681B6803F00103002B00F0878078
:10199C00924B5B6803F00C03042B0CD08F4B5B68F1
:1019AC0003F00C03082B12D18C4B5B6803F48033CF
:1019BC00B3F5803F0BD1894B1B6803F40033002B2C
:1019CC006CD07B685B68002B68D101234CE27B6890
:1019DC005B68B3F5803F06D1804B1B687F4A43F4AC
:1019EC00803313602EE07B685B68002B0CD17B4B43
:1019FC001B687A4A23F480331360784B1B68774A50
:101A0C0023F4802313601DE07B685B68B3F5A02F83
:101A1C000CD1724B1B68714A43F4802313606F4BDB
:101A2C001B686E4A43F4803313600BE06B4B1B68EE
:101A3C006A4A23F480331360684B1B68674A23F4AB
:101A4C00802313607B685B68002B13D0FFF7ACFC22
:101A5C00386108E0FFF7A8FC02463B69D31A642BF7
:101A6C0001D9032300E25D4B1B6803F40033002B08
:101A7C00F0D014E0FFF798FC386108E0FFF794FC15
:101A8C0002463B69D31A642B01D90323ECE1534B77
:101A9C001B6803F40033002BF0D100E000BF7B681F
:101AAC001B6803F00203002B63D04C4B5B6803F004
:101ABC000C03002B0BD0494B5B6803F00C03082B79
:101ACC001CD1464B5B6803F48033002B16D1434B7F
:101ADC001B6803F00203002B05D07B681B69012BEC
:101AEC0001D00123C0E13D4B1B6823F0F8027B6859
:101AFC005B69DB00394913430B603AE07B681B6977
:101B0C00002B20D0364B01221A60FFF74DFC3861B8
:101B1C0008E0FFF749FC02463B69D31A022B01D9B6
:101B2C000323A1E12D4B1B6803F00203002BF0D023
:101B3C002A4B1B6823F0F8027B685B69DB002749A2
:101B4C0013430B6015E0264B00221A60FFF72CFCA8
:101B5C00386108E0FFF728FC02463B69D31A022BD8
:101B6C0001D9032380E11D4B1B6803F00203002BFA
:101B7C00F0D17B681B6803F00803002B3AD07B681C
:101B8C009B69002B19D0174B01221A60FFF70CFC34
:101B9C00386108E0FFF708FC02463B69D31A022BB8
:101BAC0001D9032360E10D4B5B6A03F00203002BA8
:101BBC00F0D0012000F0A6FA1CE00A4B00221A60BB
:101BCC00FFF7F2FB38610FE0FFF7EEFB02463B69D3
:101BDC00D31A022B08D9032346E100BF00100240A0
:101BEC000000424280044242924B5B6A03F00203C3
:101BFC00002BE9D17B681B6803F00403002B00F079
:101C0C00A6800023FB758B4BDB6903F08053002B04
:101C1C000DD1884BDB69874A43F08053D361854BE8
:101C2C00DB6903F08053BB60BB680123FB75824BFF
:101C3C001B6803F48073002B18D17F4B1B687E4A02
:101C4C0043F480731360FFF7AFFB386108E0FFF7D4
:101C5C00ABFB02463B69D31A642B01D9032303E186
:101C6C00754B1B6803F48073002BF0D07B68DB682A
:101C7C00012B06D16F4B1B6A6E4A43F001031362B2
:101C8C002DE07B68DB68002B0CD16A4B1B6A694A20
:101C9C0023F001031362674B1B6A664A23F00403AB
:101CAC0013621CE07B68DB68052B0CD1614B1B6A53
:101CBC00604A43F0040313625E4B1B6A5D4A43F0B7
:101CCC00010313620BE05B4B1B6A5A4A23F00103BE
:101CDC001362584B1B6A574A23F0040313627B6848
:101CEC00DB68002B15D0FFF75FFB38610AE0FFF7CC
:101CFC005BFB02463B69D31A41F28832934201D90D
:101D0C000323B1E04B4B1B6A03F00203002BEED014
:101D1C0014E0FFF749FB38610AE0FFF745FB024688
:101D2C003B69D31A41F28832934201D903239BE0D9
:101D3C00404B1B6A03F00203002BEED1FB7D012B01
:101D4C0005D13C4BDB693B4A23F08053D3617B6864
:101D5C00DB69002B00F08780364B5B6803F00C03CB
:101D6C00082B61D07B68DB69022B46D1334B0022F8
:101D7C001A60FFF719FB386108E0FFF715FB024604
:101D8C003B69D31A022B01D903236DE0294B1B6845
:101D9C0003F00073002BF0D17B681B6AB3F5803F16
:101DAC0008D1244B5B6823F400327B689B68214983
:101DBC0013434B601F4B5B6823F474127B68196AE6
:101DCC007B685B6A0B431B4913434B601B4B012223
:101DDC001A60FFF7E9FA386108E0FFF7E5FA024606
:101DEC003B69D31A022B01D903233DE0114B1B682D
:101DFC0003F00073002BF0D035E0104B00221A607A
:101E0C00FFF7D2FA386108E0FFF7CEFA02463B69D9
:101E1C00D31A022B01D9032326E0064B1B6803F0CF
:101E2C000073002BF0D11EE07B68DB69012B07D11E
:101E3C00012319E000100240007000406000424293
:101E4C000B4B5B68FB60FB6803F480327B681B6A9E
:101E5C009A4206D1FB6803F470127B685B6A9A4263
:101E6C0001D0012300E0002318461837BD4680BD81
:101E7C000010024080B584B000AF786039607B6898
:101E8C00002B01D10123D0E06A4B1B6803F0070340
:101E9C003A689A4210D9674B1B6823F007026549D0
:101EAC003B6813430B60634B1B6803F007033A68F2
:101EBC009A4201D00123B8E07B681B6803F002034F
:101ECC00002B20D07B681B6803F00403002B05D08B
:101EDC00594B5B68584A43F4E06353607B681B685A
:101EEC0003F00803002B05D0534B5B68524A43F4B4
:101EFC0060535360504B5B6823F0F0027B689B6827
:101F0C004D4913434B607B681B6803F00103002BA6
:101F1C0040D07B685B68012B07D1474B1B6803F4EF
:101F2C000033002B15D101237FE07B685B68022B0B
:101F3C0007D1414B1B6803F00073002B09D101231F
:101F4C0073E03D4B1B6803F00203002B01D101230E
:101F5C006BE0394B5B6823F003027B685B683649A6
:101F6C0013434B60FFF720FAF8600AE0FFF71CFA06
:101F7C000246FB68D31A41F28832934201D90323FB
:101F8C0053E02D4B5B6803F00C027B685B689B0095
:101F9C009A42EBD1274B1B6803F007033A689A422D
:101FAC0010D2244B1B6823F0070222493B681343D1
:101FBC000B60204B1B6803F007033A689A4201D070
:101FCC00012332E07B681B6803F00403002B08D06C
:101FDC00194B5B6823F4E0627B68DB68164913439A
:101FEC004B607B681B6803F00803002B09D0124B75
:101FFC005B6823F460527B681B69DB000E4913435A
:10200C004B6000F021F802460B4B5B681B0903F098
:10201C000F030A49CB5C22FA03F3094A1360094BFC
:10202C001B681846FFF77EF9002318461037BD468B
:10203C0080BD00BF0020024000100240CC290008E7
:10204C004C0000205000002090B48AB000AF294B07
:10205C003C1D0FCB84E80F0040F201233B80002392
:10206C00FB610023BB6100237B6200237B610023A7
:10207C003B62214B5B68FB61FB6903F00C03042B97
:10208C0002D0082B03D02BE01C4B3B622BE0FB69EE
:10209C009B0C03F00F0328333B4413F8243C7B6167
:1020AC00FB6903F48033002B12D0134B5B685B0C81
:1020BC0003F0010328333B4413F8283CBB617B69D4
:1020CC000E4A03FB02F2BB69B2FBF3F37B6204E042
:1020DC007B690B4A02FB03F37B627B6A3B6202E087
:1020EC00064B3B6200BF3B6A18462837BD4690BC86
:1020FC00704700BFB02900080010024000127A009F
:10210C0000093D0080B485B000AF78600A4B1B68B5
:10211C000A4AA2FB03235B0A7A6802FB03F3FB6007
:10212C0000BFFB685A1EFA60002BF9D100BF00BF3C
:10213C001437BD4680BC70474C000020D34D621054
:10214C0080B582B000AF78607B68002B01D1012391
:10215C0041E07B6893F83D30DBB2002B06D17B6805
:10216C00002283F83C207868FFF744F87B68022251
:10217C0083F83D207B681A687B6804331946104647
:10218C0000F070FA7B68012283F846207B680122FC
:10219C0083F83E207B68012283F83F207B68012274
:1021AC0083F840207B68012283F841207B68012260
:1021BC0083F842207B68012283F843207B6801224C
:1021CC0083F844207B68012283F845207B68012238
:1021DC0083F83D20002318460837BD4680BD00001B
:1021EC0080B485B000AF78607B6893F83D30DBB28B
:1021FC00012B01D001233AE07B68022283F83D20B9
:10220C007B681B68DA687B681B6842F00102DA6045
:10221C007B681B68184A93420ED07B681B68B3F12D
:10222C00804F09D07B681B68144A934204D07B68AA
:10223C001B68134A934211D17B681B689B6803F09F
:10224C000703FB60FB68062B10D07B681B681A68C1
:10225C007B681B6842F001021A6007E07B681B6810
:10226C001A687B681B6842F001021A60002318464A
:10227C001437BD4680BC7047002C01400004004060
:10228C000008004080B582B000AF78607B681B68A6
:10229C001B6903F00203022B22D17B681B68DB68ED
:1022AC0003F00203022B1BD17B681B686FF0020248
:1022BC001A617B6801221A777B681B689B6903F0A3
:1022CC000303002B03D0786800F0B1F905E07868BF
:1022DC0000F0A4F9786800F0B3F97B6800221A7753
:1022EC007B681B681B6903F00403042B22D17B68F9
:1022FC001B68DB6803F00403042B1BD17B681B6891
:10230C006FF004021A617B6802221A777B681B68E3
:10231C009B6903F44073002B03D0786800F087F9B5
:10232C0005E0786800F07AF9786800F089F97B6844
:10233C0000221A777B681B681B6903F00803082BC3
:10234C0022D17B681B68DB6803F00803082B1BD1C8
:10235C007B681B686FF008021A617B6804221A778D
:10236C007B681B68DB6903F00303002B03D07868E0
:10237C0000F05DF905E0786800F050F9786800F03D
:10238C005FF97B6800221A777B681B681B6903F076
:10239C001003102B22D17B681B68DB6803F0100341
:1023AC00102B1BD17B681B686FF010021A617B68C5
:1023BC0008221A777B681B68DB6903F44073002BD7
:1023CC0003D0786800F033F905E0786800F026F95E
:1023DC00786800F035F97B6800221A777B681B68F7
:1023EC001B6903F00103012B0ED17B681B68DB68B2
:1023FC0003F00103012B07D17B681B686FF001020E
:10240C001A617868FEF758FD7B681B681B6903F03E
:10241C008003802B0ED17B681B68DB6803F0800384
:10242C00802B07D17B681B686FF080021A6178687B
:10243C0000F077FA7B681B681B6903F04003402BA4
:10244C000ED17B681B68DB6803F04003402B07D17F
:10245C007B681B686FF040021A61786800F0F9F82D
:10246C007B681B681B6903F02003202B0ED17B6853
:10247C001B68DB6803F02003202B07D17B681B68EB
:10248C006FF020021A61786800F042FA00BF08373A
:10249C00BD4680BD80B584B000AF786039607B6884
:1024AC0093F83C30012B01D10223B3E07B6801226D
:1024BC0083F83C207B68022283F83D207B681B68F4
:1024CC009B68FB60FB6823F07703FB60FB6823F4DD
:1024DC007F43FB607B681B68FA689A603B681B68EB
:1024EC00B3F5005F3ED0B3F5005F00F28780B3F523
:1024FC00805F00F08580B3F5805F7FD8702B1AD099
:10250C00702B7BD8602B50D0602B77D8502B3CD0C5
:10251C00502B73D8402B58D0402B6FD8302B64D015
:10252C00302B6BD8202B60D0202B67D8002B5CD0A5
:10253C00102B5AD062E07B6818683B6899683B683E
:10254C005A683B68DB6800F066F97B681B689B681F
:10255C00FB60FB6843F07703FB607B681B68FA68E1
:10256C009A604EE07B6818683B6899683B685A68CB
:10257C003B68DB6800F04FF97B681B689A687B68E6
:10258C001B6842F480429A603BE07B6818683B68A9
:10259C0059683B68DB681A4600F0C6F87B681B6814
:1025AC005021184600F01DF92BE07B6818683B6839
:1025BC0059683B68DB681A4600F0E4F87B681B68D6
:1025CC006021184600F00DF91BE07B6818683B6829
:1025DC0059683B68DB681A4600F0A6F87B681B68F4
:1025EC004021184600F0FDF80BE07B681A683B6848
:1025FC001B681946104600F0F4F802E000BF00E03A
:10260C0000BF7B68012283F83D207B68002283F8A1
:10261C003C20002318461037BD4680BD80B483B0E3
:10262C0000AF786000BF0C37BD4680BC704780B4EB
:10263C0083B000AF786000BF0C37BD4680BC7047DC
:10264C0080B483B000AF786000BF0C37BD4680BC4F
:10265C00704780B483B000AF786000BF0C37BD46C4
:10266C0080BC704780B485B000AF786039607B68FF
:10267C001B68FB607B68294A93420BD07B68B3F1E3
:10268C00804F07D07B68264A934203D07B68254A4B
:10269C00934208D1FB6823F07003FB603B685B68D6
:1026AC00FA681343FB607B681C4A93420BD07B682F
:1026BC00B3F1804F07D07B68194A934203D07B68F3
:1026CC00184A934208D1FB6823F44073FB603B68C3
:1026DC00DB68FA681343FB60FB6823F080023B68FD
:1026EC005B691343FB607B68FA681A603B689A6805
:1026FC007B68DA623B681A687B689A627B68074A77
:10270C00934203D13B681A697B681A637B68012288
:10271C005A6100BF1437BD4680BC7047002C014085
:10272C00000400400008004080B487B000AFF8609F
:10273C00B9607A60FB681B6A7B61FB681B6A23F0DB
:10274C000102FB681A62FB689B693B613B6923F0E1
:10275C00F0033B617B681B013A6913433B617B6966
:10276C0023F00A037B617A69BB6813437B61FB68C6
:10277C003A699A61FB687A691A6200BF1C37BD46D8
:10278C0080BC704780B487B000AFF860B9607A60E5
:10279C00FB681B6A23F01002FB681A62FB689B69DA
:1027AC007B61FB681B6A3B617B6923F470437B6133
:1027BC007B681B037A6913437B613B6923F0A0039D
:1027CC003B61BB681B013A6913433B61FB687A6947
:1027DC009A61FB683A691A6200BF1C37BD4680BC1F
:1027EC00704780B485B000AF786039607B689B68B7
:1027FC00FB60FB6823F07003FB603A68FB681343D3
:10280C0043F00703FB607B68FA689A6000BF1437DB
:10281C00BD4680BC704780B487B000AFF860B9602B
:10282C007A603B60FB689B687B617B6923F47F4328
:10283C007B613B681A027B681A43BB6813437A6955
:10284C0013437B61FB687A699A6000BF1C37BD46F5
:10285C0080BC704780B485B000AF786039607B680D
:10286C0093F83C30012B01D1022346E07B68012216
:10287C0083F83C207B68022283F83D207B681B6830
:10288C005B68FB607B681B689B68BB60FB6823F024
:10289C007003FB603B681B68FA681343FB607B6842
:1028AC001B68FA685A607B681B68164A93420ED004
:1028BC007B681B68B3F1804F09D07B681B68124A98
:1028CC00934204D07B681B68104A93420CD1BB68BE
:1028DC0023F08003BB603B685B68BA681343BB6042
:1028EC007B681B68BA689A607B68012283F83D207C
:1028FC007B68002283F83C20002318461437BD4621
:10290C0080BC7047002C01400004004000080040CF
:10291C0080B483B000AF786000BF0C37BD4680BC7C
:10292C00704780B483B000AF786000BF0C37BD46F1
:10293C0080BC704770B500260C4D0D4C641BA41068
:10294C00A64209D100F022F800260A4D0A4C641B5D
:10295C00A410A64205D170BD55F8043B984701362A
:10296C00EEE755F8043B98470136F2E7DC290008FE
:10297C00DC290008DC290008E02900080346024491
:10298C00934200D1704703F8011BF9E7F8B500BF7B
:10299C00F8BC08BC9E467047F8B500BFF8BC08BC34
:0429AC009E4670478C
:1029B00002030405060708090A0B0C0D0E0F101080
:1029C0004079243019120278001000000000000045
:0C29D000000000000102030406070809D3
:0429DC0031010008BD
:0429E0000D010008DD
:1029E40001000000010000000100000001000000DF
:1029F40001000000010000000100000001000000CF
:102A040001000000010000000100000001000000BE
:102A14002000000040000000800000000008014089
:102A240000080140000801402C0100000024F400CB
:082A3400100000000100000089
:04000005080012B924
:00000001FF
